:100000000C942A000C943F000C943F000C943F0089
:100010000C943F000C943F000C943F000C943F0064
:100020000C943F000C943F000C943F000C943F0054
:100030000C943F000C943F000C943F000C943F0044
:100040000C943F000C943F000C943F000C943F0034
:100050000C943F0011241FBECFE5D8E0DEBFCDBF1A
:1000600010E0A0E6B0E0E8E0F5E002C005900D92F7
:10007000AA36B107D9F70E941B020C9482020C9495
:10008000000040E00E94480008950E943801089551
:10009000823429F118F4813439F008958334D1F190
:1000A000843409F452C00895413059F42AB381E0F0
:1000B00090E002C0880F991F6A95E2F7822B8ABBF5
:1000C000089541115CC02AB381E090E002C0880F1E
:1000D000991F6A95E2F7809582238ABB0895413083
:1000E00059F427B381E090E002C0880F991F6A9508
:1000F000E2F7822B87BB0895411141C027B381E00D
:1001000090E002C0880F991F6A95E2F780958223DC
:1001100087BB0895413059F424B381E090E002C0D8
:10012000880F991F6A95E2F7822B84BB08954111CD
:1001300026C024B381E090E002C0880F991F6A9521
:10014000E2F78095822384BB0895413059F421B3AE
:1001500081E090E002C0880F991F6A95E2F7822B38
:1001600081BB089541110BC021B381E090E002C032
:10017000880F991F6A95E2F78095822381BB0895C5
:10018000823429F118F4813439F008958334D1F19F
:10019000843409F452C00895413059F42BB381E0FE
:1001A00090E002C0880F991F6A95E2F7822B8BBB03
:1001B000089541115CC02BB381E090E002C0880F2C
:1001C000991F6A95E2F7809582238BBB0895413091
:1001D00059F428B381E090E002C0880F991F6A9516
:1001E000E2F7822B88BB0895411141C028B381E01A
:1001F00090E002C0880F991F6A95E2F780958223EC
:1002000088BB0895413059F425B381E090E002C0E5
:10021000880F991F6A95E2F7822B85BB08954111DB
:1002200026C025B381E090E002C0880F991F6A952F
:10023000E2F78095822385BB0895413059F422B3BB
:1002400081E090E002C0880F991F6A95E2F7822B47
:1002500082BB089541110BC022B381E090E002C03F
:10026000880F991F6A95E2F78095822382BB0895D3
:100270008234F9F018F4813439F059C0833471F1C3
:10028000843409F440C053C049B381E090E09C013C
:10029000062E02C0220F331F0A94E2F7842F90E04B
:1002A0008223932302C0959587956A95E2F7982F4C
:1002B0003EC046B381E090E09C01062E02C0220FB2
:1002C000331F0A94E2F7842F90E08223932302C025
:1002D000959587956A95E2F7982F29C043B381E0F9
:1002E00090E09C01062E02C0220F331F0A94E2F711
:1002F000842F90E08223932302C0959587956A9579
:10030000E2F7982F14C040B381E090E09C01062EE4
:1003100002C0220F331F0A94E2F7842F90E0822359
:10032000932302C0959587956A95E2F7982F892FB8
:1003300008956F71823481F018F4813431F008959A
:10034000833489F08434B1F008958BB3807E8BBB05
:100350008BB3682B6BBB089588B3807E88BB88B352
:10036000682B68BB089585B3807E85BB85B3682BF9
:1003700065BB089582B3807E82BB82B3682B62BB6B
:1003800008951F93CF93DF93182FC0E0D0E006C0ED
:1003900041E06C2F812F0E9448002196C330D10587
:1003A000BCF341E064E0812F0E94480041E063E03B
:1003B00081E40E94480041E062E081E40E9448003C
:1003C00041E065E082E40E94480041E066E082E4AA
:1003D0000E944800DF91CF911F910895CF93DF9342
:1003E000CDB7DEB72A970FB6F894DEBF0FBECDBFEC
:1003F0009AE0E0E6F0E0DE01119601900D929A9508
:10040000E1F7E1E0F0E0EC0FFD1FE60FF11D608188
:100410000E9499012A960FB6F894DEBF0FBECDBF99
:10042000DF91CF91089541E00E94C000089540E01F
:100430000E94C000089560E081E40E94410082E4CF
:100440000E94C10163E081E40E94170262E081E43E
:100450000E94170265E082E40E94170266E082E4CF
:100460000E94170210E001C010E060E081E40E94E9
:100470004500082F6DEC169F612D1124D62FD695BF
:10048000D695D695DD0F8D2F880F880FD80F212F89
:100490002D1BD22FC62FC695C695C69562E081E466
:1004A0000E9413026D2F82E40E94EE018FE59AEE06
:1004B0000197F1F700C0000062E081E40E9417029A
:1004C00063E081E40E9413026C2F82E40E94EE013B
:1004D0008FE59AEE0197F1F700C0000063E081E438
:1004E0000E941702013051F41F5F9FEF24E684E061
:1004F000915020408040E1F700C00000143608F021
:08050000B3CFB3CFF894FFCF95
:0A05080000010203040506071011AC
:00000001FF
